:020000040800F2
:1000000000A00020AD390008F50E0008F70E00082A
:10001000F90E0008FB0E0008FD0E000800000000AD
:10002000000000000000000000000000FF0E0008BB
:10003000010F000800000000030F0008050F000872
:10004000FD390008FD390008FD390008FD390008B8
:10005000FD390008FD390008FD390008FD390008A8
:10006000FD390008FD390008FD3900080D0F0008B2
:10007000FD390008FD390008FD390008FD39000888
:10008000FD390008FD390008FD390008FD39000878
:10009000FD390008FD390008FD390008FD39000868
:1000A000FD390008FD390008FD390008FD39000858
:1000B000FD390008FD390008FD390008FD39000848
:1000C000FD390008FD390008FD390008FD39000838
:1000D000FD390008FD390008FD390008FD39000828
:1000E000FD390008FD390008FD390008FD39000818
:1000F000FD390008FD390008FD390008FD39000808
:10010000000000000000000000000000FD390008B1
:100110001D0F0008FD390008FD390008FD390008F1
:10012000FD390008FD3900082D0F0008FD390008D1
:100130003D0F0008FD39000800000000000000002D
:10014000FD390008FD390008FD39000800000000F5
:10015000000000000000000000000000000000009F
:100160000000000000000000FD390008FD39000813
:10017000FD39000800000000000000000000000041
:0801800000000000FD39000839
:1001900010B5054C237833B9044B13B10448AFF3C1
:1001A00000800123237010BD7000002000000000BB
:1001B0005043000808B5034B1BB103490348AFF394
:1001C000008008BD000000007400002050430008BB
:1001D00001F0FF01102A2BDB10F0070F08D010F8F8
:1001E000013B013A8B422DD010F0070F42B3F6D1FC
:1001F000F0B441EA012141EA014122F007047FF015
:1002000000070023F0E80256083C85EA010586EA6B
:10021000010685FA47F5A3FA87F586FA47F6A5FAA7
:1002200087F68EB9EED1F0BC01F0FF0102F00702B3
:1002300032B110F8013B013A83EA010313B1F8D15E
:100240000020704701387047002D06BF354603383F
:10025000073815F0010F07D1013015F4807F02BF78
:10026000013015F4C03F0130F0BC0138704700BFC9
:1002700070B54FF0FF0C4CF4E06C1CEA11541DBF3C
:100280001CEA135594EA0C0F95EA0C0F00F0DEF807
:100290002C4481EA030621EA4C5123EA4C5350EAEC
:1002A000013518BF52EA033541F4801143F480133D
:1002B00038D0A0FB02CE4FF00005E1FB02E506F0CE
:1002C0000042E0FB03E54FF00006E1FB03569CF023
:1002D000000F18BF4EF0010EA4F1FF04B6F5007F29
:1002E00064F5407404D25FEA4E0E6D4146EB06069B
:1002F00042EAC62141EA55514FEAC52040EA5E5024
:100300004FEACE2EB4F1FD0C88BFBCF5E06F1ED8CD
:10031000BEF1004F08BF5FEA500E50F1000041EB04
:10032000045170BD06F0004646EA010140EA0200B1
:1003300081EA0301B4EB5C04C2BFD4EB0C0541EAD3
:10034000045170BD41F480114FF0000E013C00F3E8
:10035000AB8014F1360FDEBF002001F0004170BD0C
:10036000C4F10004203C35DA0C341BDC04F1140425
:10037000C4F1200500FA05F320FA04F001FA05F2B1
:1003800040EA020001F0004221F0004110EBD3707E
:1003900021FA04F642EB06015EEA430E08BF20EAAA
:1003A000D37070BDC4F10C04C4F1200500FA04F34D
:1003B00020FA05F001FA04F240EA020001F00041DF
:1003C00010EBD37041F100015EEA430E08BF20EA52
:1003D000D37070BDC4F1200500FA05F24EEA020E9A
:1003E00020FA04F301FA05F243EA020321FA04F0C9
:1003F00001F0004121FA04F220EA020000EBD37080
:100400005EEA430E08BF20EAD37070BD94F0000F7F
:100410000FD101F00046400041EB010111F4801FB3
:1004200008BF013CF7D041EA060195F0000F18BF64
:10043000704703F00046520043EB030313F4801FA0
:1004400008BF013DF7D043EA0603704794EA0C0F5A
:100450000CEA135518BF95EA0C0F0CD050EA410670
:1004600018BF52EA4306D1D181EA030101F00041ED
:100470004FF0000070BD50EA410606BF1046194615
:1004800052EA430619D094EA0C0F02D150EA013621
:1004900013D195EA0C0F05D152EA03361CBF104662
:1004A00019460AD181EA030101F0004141F0FE4101
:1004B00041F470014FF0000070BD41F0FE4141F485
:1004C000780170BD81F0004102E000BF83F000437D
:1004D00030B54FEA41044FEA430594EA050F08BFDF
:1004E00090EA020F1FBF54EA000C55EA020C7FEAA3
:1004F000645C7FEA655C00F0E2804FEA5454D4EB20
:100500005555B8BF6D420CDD2C4480EA020281EAE9
:10051000030382EA000083EA010180EA020281EA21
:100520000303362D88BF30BD11F0004F4FEA013173
:100530004FF4801C4CEA113102D0404261EB410182
:1005400013F0004F4FEA03334CEA133302D0524208
:1005500063EB430394EA050F00F0A780A4F10104C4
:10056000D5F1200E0DDB02FA0EFC22FA05F28018FE
:1005700041F1000103FA0EF2801843FA05F35941E4
:100580000EE0A5F120050EF1200E012A03FA0EFC63
:1005900028BF4CF0020C43FA05F3C01851EBE3718D
:1005A00001F0004507D54FF0000EDCF1000C7EEBAA
:1005B00000006EEB0101B1F5801F1BD3B1F5001FE8
:1005C0000CD349085FEA30004FEA3C0C04F1010407
:1005D0004FEA445212F5800F80F09A80BCF1004F30
:1005E00008BF5FEA500C50F1000041EB045141EAB2
:1005F000050130BD5FEA4C0C404141EB0101013C7B
:1006000028BFB1F5801FE9D291F0000F04BF014669
:100610000020B1FA81F308BF2033A3F10B03B3F13B
:1006200020020CDA0C3208DD02F1140CC2F10C02CB
:1006300001FA0CF021FA02F10CE002F11402D8BF29
:10064000C2F1200C01FA02F120FA0CFCDCBF41EAF5
:100650000C019040E41AA2BF01EB0451294330BDC4
:100660006FEA04041F3C1CDA0C340EDC04F11404A1
:10067000C4F1200220FA04F001FA02F340EA030078
:1006800021FA04F345EA030130BDC4F10C04C4F1BE
:10069000200220FA02F001FA04F340EA030029469E
:1006A00030BD21FA04F0294630BD94F0000F83F4E8
:1006B000801306BF81F480110134013D4EE77FEACB
:1006C000645C18BF7FEA655C29D094EA050F08BF17
:1006D00090EA020F05D054EA000C04BF19461046F8
:1006E00030BD91EA030F1EBF0021002030BD5FEA3C
:1006F000545C05D14000494128BF41F0004130BD64
:1007000014F580043CBF01F5801130BD01F00045B7
:1007100045F0FE4141F470014FF0000030BD7FEA2A
:10072000645C1ABF194610467FEA655C1CBF0B4625
:10073000024650EA013406BF52EA033591EA030F3C
:1007400041F4002130BD00BF90F0000F04BF002134
:10075000704730B54FF4806404F132044FF0000567
:100760004FF0000150E700BF90F0000F04BF0021E0
:10077000704730B54FF4806404F1320410F0004546
:1007800048BF40424FF000013EE700BF42004FEA41
:10079000E2014FEA31014FEA02701FBF12F07F43BE
:1007A00093F07F4F81F06051704732F07F4208BF75
:1007B000704793F07F4F04BF41F40021704730B57C
:1007C0004FF4607401F0004521F000411CE700BFC8
:1007D00050EA010208BF704730B54FF000050AE04B
:1007E00050EA010208BF704730B511F0004502D54C
:1007F000404261EB41014FF4806404F132045FEA4E
:10080000915C3FF4D8AE4FF003025FEADC0C18BFF6
:1008100003325FEADC0C18BF033202EBDC02C2F1E8
:10082000200300FA03FC20FA02F001FA03FE40EA7A
:100830000E0021FA02F11444BDE600BF4A0011D2B5
:1008400012F5001211D20DD56FF47873B3EB62522A
:100850000ED44FEAC12343F0004343EA505323FA36
:1008600002F070474FF00000704750EA013002D1AB
:100870004FF0FF3070474FF00000704700B58BB06D
:10088000002307930893099301930293039304931E
:10089000059306934A484FF0A0420260436083608C
:1008A00001220261437680F82030C3628262C36015
:1008B0000821C16180F8302004224261037643633D
:1008C00000F018FD00285DD10023079307A93C48DC
:1008D00001F004FA002858D1022301930123029366
:1008E00000230493062203920593069301A934483A
:1008F00001F016F800284BD1032301930223029341
:1009000001A92F4801F00CF8002844D104230193D9
:100910000323029301A92A4801F002F800283DD1DF
:1009200005230193042302930DEB0301244800F0F7
:10093000F7FF002835D1062301930523029301A96F
:100940001F4800F0EDFF78BB0723019306230293B5
:1009500001A91B4800F0E4FF48BB082301930723CB
:10096000029301A9164800F0DBFF18BB092301938D
:100970000823029301A9124800F0D2FFE8B90BB096
:100980005DF804FB00F0CAF99EE700F0C7F9A3E7A1
:1009900000F0C4F9B0E700F0C1F9B7E700F0BEF924
:1009A000BEE700F0BBF9C6E700F0B8F9CCE700F00D
:1009B000B5F9D2E700F0B2F9D8E700F0AFF9DEE719
:1009C0008C00002070B58AB000230593069307932E
:1009D000089309930368B3F1A04F01D00AB070BD2A
:1009E000044603F1704303F504335A6942F0805220
:1009F0005A615A6902F080520192019A5A6942F48E
:100A000000225A615A6902F400220292029A5A693B
:100A100042F400325A615A6902F400320392039A96
:100A20005A6942F480025A615B6903F480030493BB
:100A3000049B0F2305930326069605A9174801F08A
:100A4000A7FB0E23059306960025079505A94FF0F1
:100A5000904001F09DFB102305930696079505A98C
:100A60000F4801F095FB0F480F4B03604560856010
:100A70008023C3604FF4807303614FF4806343614C
:100A800020238361C56101F07FFA18B9054BA36388
:100A90005C62A3E700F042F9F8E700BF00080048F5
:100AA00000140048DC0000200800024000B583B0BC
:100AB000164B5A6942F001025A615A6902F001026A
:100AC0000092009A5A6942F002025A615B6903F08F
:100AD00002030193019B002211460B2001F0BEF995
:100AE0000B2001F0F3F9002211463A2001F0B6F98B
:100AF0003A2001F0EBF9002211463C2001F0AEF95A
:100B00003C2001F0E3F903B05DF804FB0010024063
:100B100030B58BB00024059406940794089409948A
:100B20001C4B5A6942F480025A615A6902F48002ED
:100B30000192019A5A6942F400225A615A6902F4F8
:100B400000220292029A5A6942F400325A615A69AA
:100B500002F400320392039A5A6942F400125A6175
:100B60005B6903F400130493049B0B4D22464FF47E
:100B70008071284601F0F0FB4FF480730593012348
:100B800006930794089405A9284601F001FB0BB0D1
:100B900030BD00BF001002400010004800000000FF
:100BA000514B834232D07047504B33F8143040F6EB
:100BB000B83202FB03F31B0B04EB840205EB420289
:100BC0005B004B4921F812300134072C19DC072C4B
:100BD000EAD1464B33F81400FFF7C6FD40A3D3E932
:100BE0000023FFF745FB0022424BFFF741FB04EBDC
:100BF000840605EB4606FFF721FE3D4B23F8160061
:100C0000D2E70135092D04DC0024DEE770B50025AC
:100C1000F8E700211BE001EB810203EB4202344CB8
:100C200034F8122010440133092BF4DD06294AD888
:100C3000DFE801F004121B242D363F002E4BA3FBEE
:100C40000023DB086E332D4A22F8113001310729C9
:100C500041DC00231846E7E7274BA3FB0023DB0812
:100C60009633264A22F81130F0E7234BA3FB0023EA
:100C7000DB088233214A22F81130E7E71E4BA3FB41
:100C80000023DB0846331D4A22F81130DEE71A4BF9
:100C9000A3FB0023DB08283B184A22F81130D5E7D4
:100CA000154BA3FB0023DB08733B144A22F81130D9
:100CB000CCE7114BA3FB0023DB0803F5AA730F4A13
:100CC00022F81130C2E70C4BA3FB0023DB080B4AD0
:100CD00022F81130BAE70A4B01221A7070BD00BF2A
:100CE0003333333333B33C408C00002020010020E9
:100CF000400100200000303FCDCCCCCC30010020A2
:100D0000E0010020034B834200D07047024B0122D8
:100D10001A70FAE7B8020020E101002072B6FEE77F
:100D200000B59FB02822002114A802F09BFE0021EC
:100D30000F9110911191129113913C22684602F08B
:100D400091FE012314934FF4A022159218930223CD
:100D50001B934FF480331C934FF4E0131D9314A89E
:100D600001F000FBD8B90F230F930221109100234B
:100D700011934FF48062129213930FA801F044FE76
:100D800078B988230093002305934FF48073099367
:100D9000684601F03FFF30B91FB05DF804FBFFF774
:100DA000BDFFFFF7BBFFFFF7B9FF000070B5E6B06E
:100DB00000F0BEF9FFF7B4FFFFF7AAFEFFF776FEDB
:100DC000FFF75CFD00F0FEF800F0CAF84FF4807207
:100DD000002125A802F046FE7B222F4906A802F03A
:100DE00033FE00212D4800F04FFD08B1FFF796FFBC
:100DF00008222B49294800F085FC08B1FFF78EFF37
:100E0000284802F037F800283FD1274B01221A70FA
:100E1000244B1B68596A89B2224B1B685B6A5B1AB8
:100E200044F61F629342F7D9204B1B78012BF3D174
:100E30001F4A9388D188108954899589D689059647
:100E4000049503940290019100935388128806A997
:100E500025A802F00FFE154B00221A70124B1B78CA
:100E6000002BFBD04FF4807225A9124802F000F944
:100E700068B90D4B00221A70084800F083FB40B996
:100E8000084B1B68596A89B2C6E7FFF747FFFFF7AF
:100E900045FFFFF743FF00BF684300088C000020B8
:100EA00020010020E4010020E1010020E0010020F9
:100EB00030010020B802002000B583B00C4B9A69C5
:100EC00042F001029A619A6902F001020092009ACE
:100ED000DA6942F08052DA61DB6903F080530193F2
:100EE000019B072000F0A8FF03B05DF804FB00BFE2
:100EF00000100240FEE7FEE7FEE7FEE7FEE7704770
:100F00007047704708B500F025F908BD08B50248DC
:100F100001F0E3F808BD00BFDC00002008B502487E
:100F200002F072F908BD00BFB802002008B50248FF
:100F300001F0D3F808BD00BF3002002008B5024818
:100F400001F0CBF808BD00BF74020020034AD2F8BC
:100F5000883043F47003C2F88830704700ED00E039
:100F600008B50B480B4B036048F69F4343600023D2
:100F7000836044F62062C260036143618023836121
:100F800002F012F800B908BDFFF7C8FEFBE700BF8A
:100F9000E4010020004401400268094B9A4200D05D
:100FA000704782B003F54C439A6942F400329A616B
:100FB0009B6903F400330193019B02B0704700BFAB
:100FC0000044014008B50B480B4B03604FF4E1337C
:100FD000436000238360C36003610C22426183612C
:100FE000C3610362436202F0AEFC00B908BDFFF7C3
:100FF00095FEFBE7B8020020004C004010B588B019
:1010000000230393049305930693079302682F4BE1
:101010009A4201D008B010BD044603F5E233DA6904
:1010200042F40022DA61DA6902F400220192019AA4
:101030005A6942F400225A615B6903F40023029367
:10104000029B4FF44063039302230493032306930C
:101050000523079303A91E4801F09AF81D481E4B6B
:1010600003600023436083608022C26003614361A8
:1010700083614FF48053C36100F086FF00BB154BC2
:1010800023675C621548164B0360102343600023FE
:1010900083608022C2600361436183614FF4005327
:1010A000C36100F071FF70B90C4BE3665C62002213
:1010B0001146342000F0D2FE342000F007FFA9E7EB
:1010C000FFF72CFEDBE7FFF729FEEDE7004C0040C1
:1010D0000008004830020020300402407402002062
:1010E0005804024010B504460E4B18784FF47A733A
:1010F000B3FBF0F30C4A1068B0FBF3F000F0F4FE21
:1011000068B90F2C01D901200AE0002221464FF0D6
:10111000FF3000F0A3FE054B1C60002000E0012022
:1011200010BD00BF040000200000002008000020C7
:1011300008B5074A136843F010031360032000F05A
:101140007BFE0020FFF7CEFFFFF7B6FE002008BDB4
:1011500000200240034A1168034B1B780B441360C4
:10116000704700BF3C03002004000020014B1868BA
:10117000704700BF3C0300207047704738B50268D5
:10118000936803F00303012B01D0002038BD04460F
:10119000136813F0010F33D0936803F00D03012B94
:1011A00009D0036C43F010030364436C43F0010364
:1011B00043640120EAE7936843F002039360036805
:1011C00003221A60FFF7D2FF054623689B6813F0DD
:1011D000010F13D0FFF7CAFF401B0228F5D923687F
:1011E0009B6813F0010FF0D0236C43F010032364CD
:1011F000636C43F0010363640120C7E70020C5E787
:101200000020C3E738B504460268936803F003037F
:10121000012B0DD091681A4B19420FD0236C43F06B
:1012200010032364636C43F001036364012038BD41
:10123000136813F0010FEDD00020F8E7936843F036
:1012400001039360FFF792FF054623681B6813F0C4
:10125000010F13D1FFF78AFF431B022BF5D9236837
:101260001B6813F0010FF0D1236C43F010032364CB
:10127000636C43F0010363640120D8E70020D6E7E4
:101280003F00008008B5406A036C43F040030364EC
:10129000436C43F004034364FFF76FFF08BD08B5D8
:1012A000406AFFF769FF08BD08B5436A1A6C12F07F
:1012B000500F1AD11A6C42F400721A641A68D2687C
:1012C00012F4406F0DD15A7E5AB91A6C22F4807212
:1012D0001A641A6C12F4805F03D11A6C42F0010296
:1012E0001A641846FFF75CFC08BD9B6B1B6B9847A4
:1012F000FAE7000030B597B000230193002800F012
:101300002F810446036C13F0100F52D1036CABB164
:10131000002023689A6812F0805F03D09B6813F066
:10132000005F47D0236C23F0120343F010032364C3
:10133000636C43F00103636401203BE04364C364D6
:10134000836480F83C30FFF73DFB23689B6813F013
:10135000805F01D00020DCE72046FFF70FFF236C01
:1013600013F0100FD5D10028D3D1236C23F4885368
:1013700023F0020343F0020323642268936823F0FE
:10138000405393602268936843F080539360754B99
:101390001B68754AA2FB03239B0C03EB83035B00D2
:1013A000019302E0019B013B0193019B002BF9D1CA
:1013B000AFE70020236C13F0100F40F0C880002826
:1013C00040F0C5802368996811F0040140F0BF80A7
:1013D000226C22F4817242F002022264B3F1A04F27
:1013E00014D0624A93420FD0614DB3F1A04F0FD099
:1013F0005E4A934267D05F4A934268D05E4A934206
:1014000069D00022029205E05C4DEEE75B4DECE70F
:10141000564A02929A6802F00302012A5FD0029BA8
:1014200023B19A6802F00302012A5DD0AB6823F46D
:10143000403362681343AB60627E5303656B012DDA
:1014400001D04FF480510B43E1680B43A1680B437B
:1014500094F8201001294CD0A26A012A0AD02168F0
:10146000444DA94258D005F58075A94254D0E16A8F
:101470000A4313432268916811F00C0F0CD1D16814
:1014800021F4804121F00201D160217E94F83020C6
:10149000520042EA813213432168CD68384A2A401B
:1014A0001343CB602369012B48D02268136B23F0D0
:1014B0000F03136300236364236C23F0030343F0DF
:1014C000010323644AE04FF0A0420292A2E702F532
:1014D000807202929EE7A2F5807202929AE71B68E0
:1014E00013F0010FA8D19AE71B6813F0010FA3D1E5
:1014F0009CE732B9626A013A43EA424343F48033DB
:10150000AAE7226C22F0220242F020022264626CDE
:1015100042F0010262649FE7B2F5307F08D0B2F575
:10152000807F08D0B2F5E07FA1D14FF480729EE7B2
:101530004FF4E0729BE74FF4307298E721680B6B31
:1015400023F00F03E269013A13430B63B2E7236C04
:1015500023F0120343F010032364012017B030BDC1
:101560000120FBE70000002083DE1B430001005048
:101570000007005000040050000500500003005018
:1015800007C0F0FF03689B6813F0040F40F0AD80C4
:1015900010B5044690F83C30012B00F0A8800123E0
:1015A00080F83C30FFF72EFE002840F09A80236C34
:1015B00023F4706323F0010343F4807323642368EE
:1015C000B3F1A04F33D04B4A934230D04A4A92688D
:1015D00012F01F0F30D1226C22F480122264DA68DC
:1015E00012F0007F05D0226C22F4405242F4805267
:1015F0002264226C12F4805F3ED0626C22F00602FC
:101600006264002284F83C201C221A602368B3F133
:10161000A04F34D0374A934231D0374A926812F003
:101620001F0F31D19A6842F004029A605CE0334A9D
:10163000926812F01F0FCED0B3F1A04FCBD0304A3A
:101640009342C8D0226C42F480122264294A934209
:101650000CD02B4AD268C2F34062002AC9D0226C57
:1016600022F4405242F480522264C2E74FF0A0427A
:10167000D268C2F34062F0E700226264C1E71F4A09
:10168000926812F01F0FCDD0B3F1A04F09D0194AC4
:10169000934206D0184A926802F01F02052A06D12A
:1016A000C0E7164A926802F01F02052ABAD0B3F1C9
:1016B000A04F09D00F4A934206D00F4A926802F019
:1016C0001F02092A06D1ADE70C4A926802F01F02F8
:1016D000092AA7D0B3F1A04FA4D0094A934203D15D
:1016E000A0E7002384F83C3010BD022070470220A0
:1016F000FAE700BF0001005000070050000300504F
:1017000000040050F8B504460068856815F0040F21
:1017100040F0A8800F46164694F83C30012B00F0AC
:10172000A380012384F83C30B0F1A04F0AD04F4B86
:10173000984207D04E4B9B6813F01F0F0CBF01233C
:10174000002306E04B4B9B6813F01F0F0CBF0123D7
:1017500000232BB9002384F83C3001252846F8BD2E
:101760002046FFF74FFD0546002877D1236C23F470
:10177000706323F0010343F4807323642368B3F19F
:10178000A04F43D0394A934240D0394A926812F070
:101790001F0F40D1226C22F480122264DB6813F008
:1017A000007F05D0236C23F4405343F4805323641B
:1017B000236C13F4805F4ED0636C23F006036364E4
:1017C000002384F83C30A36B2B4A9A62A36B2B4A0C
:1017D000DA62A36B2A4A1A6323681C221A60226801
:1017E000536843F0100353602268D36843F0010349
:1017F000D360216833463A464031A06B00F0ECFBE1
:101800002268936843F004039360A7E7194A92683B
:1018100012F01F0FBED0B3F1A04FBBD0194A9342B4
:10182000B8D0226C42F480122264104A93420CD049
:10183000144BDB68C3F34063002BB9D0236C23F453
:10184000405343F480532364B2E74FF0A043DB6876
:10185000C3F34063F0E700236364B1E7002384F837
:101860003C307BE7022579E7022577E7000100504D
:101870000007005000030050A91200089F12000842
:10188000851200080004005070B590F83C30012B20
:1018900043D004460D46012380F83C30FFF76EFC30
:1018A0000646002834D1012323642268936823F07C
:1018B00080439360012D1FD02268936843F000435A
:1018C0009360FFF753FC054623689B68002B19DAE9
:1018D000FFF74CFC431B0A2BF6D923689B68002BAF
:1018E000F2DA236C23F0120343F010032364002385
:1018F00084F83C3001260EE02268936843F0804370
:101900009360D9E7236C23F0030343F001032364BE
:10191000002384F83C30304670BD0226FBE700000F
:1019200030B496B00022019290F83C20012A00F0D9
:10193000C2810346012280F83C200068826812F0D0
:10194000040F40F0AD814A68042A37D8046B02EBDB
:10195000420252004FF01F0C0CFA02FC24EA0C0C5D
:101960000C6804FA02F24CEA020202631868826808
:1019700012F00C0F6ED10A68092A52D9846902EB61
:1019800042021E3A4FF0070C0CFA02FC24EA0C0447
:101990008D6805FA02F22243826148691C68E26898
:1019A000C2F3C102520000FA02F2086901380328AA
:1019B00000F29980DFE800F04476818C092A10D883
:1019C000446B02EB420252001E3A4FF01F0C0CFA1D
:1019D00002FC24EA0C040D6805FA02F22243426379
:1019E000C4E70E2A0ED8846B02EB420252003C3A46
:1019F0001F25954024EA05040D6805FA02F22243EA
:101A00008263B3E7C46B02EB420252005A3A1F25CD
:101A1000954024EA05040D6805FA02F22243C263E8
:101A2000A4E7446902EB42024FF0070C0CFA02FCF7
:101A300024EA0C048D6805FA02F222434261ACE705
:101A4000206E9E4D0540086842EA8062154345F0CD
:101A5000004525661868826802F00302012A72D0E8
:101A6000CA68012A75D0D0F8B02001240D68AC40B6
:101A700022EA0402C0F8B0201A68B2F1A04F00F0C8
:101A800093808F48824200F08D808E4C0968102927
:101A900000F08C80112900F09D80122900F09F80B9
:101AA000002002E1606E854D0540086842EA8062D0
:101AB000154345F000456566CCE7A06E7F4D0540B7
:101AC000086842EA8062154345F00045A566C1E713
:101AD000E56E7A4828400D6842EA8562024342F08A
:101AE0000042E266B6E7226E02F0F8420868B2EB06
:101AF000806F03D1226E22F0004222661A68506E77
:101B000000F0F8400C68B0EB846F03D1506E20F009
:101B1000004050661A68906E00F0F8400C68B0EB18
:101B2000846F03D1906E20F0004090661A68D06EEA
:101B300000F0F8400C68B0EB846F8BD1D06E20F0D1
:101B40000040D06686E7026812F0010F88D00020BE
:101B5000ABE0D0F8B0200D680124AC402243C0F8BF
:101B6000B0200A68092A0ED91D68A86902EB420252
:101B70001B3A0724944020EA04008C6804FA02F21D
:101B80000243AA6178E71D686869013202EB4202EC
:101B90000724944020EA04008C6804FA02F202430D
:101BA0006A6169E7484C71E7474C6FE7A06810F439
:101BB000000F7FF46FAFB2F1A04F16D040488242C1
:101BC0002AD0424882422BD0414882422CD0002069
:101BD00002900CE0A06810F0807FECD05DE7A06878
:101BE00010F4800FE7D000205FE035480290906845
:101BF00000F0030001281BD0029828B1856805F089
:101C0000030CBCF1010F1DD0102920D0112938D0B0
:101C100012293FD0002048E04FF0A0400290E6E7B4
:101C200000F580700290E2E7A0F580700290DEE798
:101C3000106810F0010FDFD01A6C42F020021A6415
:101C4000012032E0006810F0010FF5D1DCE7B2F1BD
:101C5000A04FDBD1A26842F40002A2601D4A1268C4
:101C60001D49A1FB0212920C02EB8202520001926A
:101C700002E0019A013A0192019A002AF9D100206A
:101C800013E0B2F1A04FC3D1A26842F08072A2600B
:101C900000200AE0A26842F48002A260002004E072
:101CA0001A6C42F020021A640120002283F83C20C2
:101CB00016B030BC70470220FAE700BF00F0FF8387
:101CC00000010050000700500003005000040050C5
:101CD000000500500000002083DE1B4330B494B0A8
:101CE00003460268B2F1A04F0BD04E4882424BD05F
:101CF0004D4882424CD04D4882424DD00020009049
:101D000001E0484800900098002800F0878093F890
:101D10003CC0BCF1010F00F08380012483F83C40FB
:101D2000946814F0040F6ED1846814F0040F6AD123
:101D3000B2F1A04F36D03B4CA24231D03C4A0C68A5
:101D4000002C3DD0946824F4604493F830C04D6872
:101D500045EA4C3C44EA0C0494601D68AC6804F00D
:101D60000304012C20D0846804F00304012C21D04A
:101D7000906820F4716020F00F000C68896821439E
:101D800008439060002043E04FF0A0400090BAE785
:101D900000F580700090B6E7A0F580700090B2E783
:101DA000244ACCE7234ACAE72C6814F0010FDAD0A2
:101DB00000202DE0006810F0010FD9D0002027E0AE
:101DC000916821F4604191601C68A16801F00301F1
:101DD00001290CD0816801F0030101290DD091681F
:101DE00021F4716121F00F019160002010E0216861
:101DF00011F0010FEED000200AE0016811F0010F90
:101E0000EDD0002004E01A6C42F020021A64012098
:101E1000002283F83C2014B030BC70470120FAE760
:101E20000220F8E7000100500004005000050050B7
:101E30000007005000030050074AD36823F4E06312
:101E40001B041B0C000200F4E060034343F0BF637B
:101E500043F40033D360704700ED00E000B5194B48
:101E6000DB68C3F30223C3F1070CBCF1040F28BFE6
:101E70004FF0040C03F1040EBEF1060F18D9033B1A
:101E80004FF0FF3E0EFA0CFC21EA0C0199400EFACD
:101E900003F322EA0303194300280BDB0901C9B24B
:101EA00000F1604000F5614080F800135DF804FB2C
:101EB0000023E5E700F00F000901C9B2024B1954F5
:101EC000F4E700BF00ED00E014ED00E0002807DBC0
:101ED00000F01F02400901239340024A42F82030DB
:101EE000704700BF00E100E00138B0F1807F0BD205
:101EF0004FF0E0235861054AF02182F823100020BA
:101F0000986107221A6170470120704700ED00E0D8
:101F100030B40124056CAC40C56B6C600468636030
:101F20004368102B05D0036899600368DA6030BC01
:101F3000704703689A600368D960F8E702680C4B41
:101F40009A420AD80B4B13440B4AA2FB03231B09EA
:101F50009B000364094BC3637047094B1344064A53
:101F6000A2FB03231B099B000364064BC36370475A
:101F700007040240F8FFFDBFCDCCCCCC00000240EE
:101F8000F8FBFDBF0004024020B310B50446022355
:101F900080F8213001680A6822F47F5222F0300272
:101FA000436880680343E068034320690343606932
:101FB0000343A0690343E069034313430B602046D6
:101FC000FFF7BCFF0020A063012384F8213084F8D0
:101FD000200010BD0120704738B5044690F820005D
:101FE000012831D0012084F8200094F82100012834
:101FF00004D0002384F82030022038BD022084F869
:1020000021000020A0632568286820F001002860D6
:102010002046FFF77DFFE36A5BB12268136843F057
:102020000E0313602268136843F00103136000205D
:10203000E3E72268136843F00A0313602268136819
:1020400023F004031360EDE70220D6E790F8213077
:10205000022B06D004238363002380F82030012064
:1020600070470268136823F00E0313600268136858
:1020700023F001031360036CC16B012202FA03F326
:102080004B6080F82120002380F8203018467047EC
:1020900008B590F82130022B03D00423836301207C
:1020A00008BD0268136823F00E031360026813680A
:1020B00023F001031360036CC16B012202FA03F3E6
:1020C0004B6080F82120002380F82030436B13B14F
:1020D00098470020E4E70020E2E738B5C36B1A68B0
:1020E00004682568016C04238B40134213D015F05B
:1020F000040F10D0236813F0200F03D1236823F0BE
:1021000004032360016CC26B04238B405360C36AD9
:1021100003B1984738BD02238B4013421AD015F003
:10212000020F17D0236813F0200F06D1236823F085
:102130000A032360012380F82130016CC26B022363
:102140008B405360002380F82030836A002BE1D05D
:102150009847DFE7082303FA01F11142DAD015F0BE
:10216000080FD7D0236823F00E032360026CC16BE5
:10217000012303FA02F24A60836380F821300023CE
:1021800080F82030036B002BC4D09847C2E70000D2
:10219000F0B583B0002362E085685E000324B4409C
:1021A00025EA0405CC68B4402C438460446824EAE2
:1021B0000C0C4C68C4F300149C4044EA0C044460CA
:1021C0005EE0DD08083550F8256003F007044FEAAB
:1021D000840C0F2404FA0CF426EA040E0C6904FAA9
:1021E0000CF444EA0E0440F8254060E0042400E0CA
:1021F000002404FA0EF42C430CF1020C524D45F865
:102200002C40524C2568D44325EA02064F6817F447
:10221000803F01D042EA05064C4D2E606D6804EA0D
:1022200005064F6817F4003F01D042EA0506474D06
:102230006E60AD6804EA05064F6817F4801F01D090
:1022400042EA0506414DAE60ED682C404E6816F43A
:10225000001F01D042EA05043C4AD46001330A68F9
:1022600032FA03F46ED04FF0010C0CFA03FC1CEAB6
:102270000202F3D04C6804F00304013C012C8BD91A
:102280004C6804F00304032C0CD0C4685D004FF0CC
:10229000030C0CFA05FC24EA0C0C8C68AC4044EAF4
:1022A0000C04C4604C6804F00304022C89D0046858
:1022B0004FEA430E4FF0030C0CFA0EFC24EA0C0C10
:1022C0004C6804F0030404FA0EF444EA0C040460BD
:1022D0004C6814F4403FC1D01D4CA56945F0010580
:1022E000A561A46904F001040194019C4FEA930CD8
:1022F0000CF10205144C54F8255003F003044FEA86
:10230000840E0F2404FA0EF425EA0405B0F1904F70
:102310003FF46EAF0F4CA0420ED004F58064A04293
:102320000CD004F58064A0420AD004F58064A04279
:102330003FF45CAF05245CE701245AE7022458E728
:10234000032456E703B0F0BD000001400004014043
:1023500000100240000400480AB1816170478162A8
:1023600070470000002800F0018370B582B0044679
:10237000036813F0010F3BD0B54B5B6803F00C030F
:10238000042B1ED0B24B5B6803F00C03082B13D058
:102390006368B3F5803F68D0002B40F0928003F172
:1023A000804303F504331A6822F480321A601A68F5
:1023B00022F480221A605DE0A54B5B6813F4803F35
:1023C000E6D04FF4003393FAA3F3A14B19684FF40E
:1023D000003393FAA3F3B3FA83F303F01F0301224C
:1023E00002FA03F30B4203D06368002B00F0C082B3
:1023F000236813F0020F00F0C580954B5B6813F063
:102400000C0F00F09C80924B5B6803F00C03082BD0
:1024100000F08F802369002B00F0F280012292FAF5
:10242000A2F3B3FA83F303F1845303F584139B00FF
:102430001A60FEF79BFE0546022393FAA3F3844B32
:102440001968022393FAA3F3B3FA83F303F01F038B
:10245000012202FA03F30B4240F0C380FEF786FE2E
:10246000401B0228E8D903208BE2794A136843F421
:1024700080331360764AD36A23F00F03A1680B43BD
:10248000D3626368002B36D0FEF770FE05464FF42A
:10249000003393FAA3F36E4B19684FF4003393FAA9
:1024A000A3F3B3FA83F303F01F03012202FA03F349
:1024B0000B429DD1FEF75AFE401B6428E7D903204A
:1024C0005FE2B3F5A02F09D0614B1A6822F4803285
:1024D0001A601A6822F480221A60CBE703F1804365
:1024E000A3F53C331A6842F480221A601A6842F459
:1024F00080321A60BEE7FEF739FE05464FF400331E
:1025000093FAA3F3524B19684FF4003393FAA3F3F1
:10251000B3FA83F303F01F03012202FA03F30B4221
:102520003FF466AFFEF722FE401B6428E6D9032085
:1025300027E2474B5B6813F4803F7FF46BAF0223C5
:1025400093FAA3F3424B1968022393FAA3F3B3FA65
:1025500083F303F01F03012202FA03F30B4203D0BB
:102560002369934240F006823948036823F0F80358
:102570006169F82292FAA2F2B2FA82F201FA02F248
:1025800013430360236813F0080F00F08D80A369E4
:10259000002B61D0012191FAA1F2B2FA82F22D4B07
:1025A00013449B001960FEF7E1FD0546022393FAF0
:1025B000A3F293FAA3F293FAA3F2254A516A93FA8B
:1025C000A3F3B3FA83F303F01F03012202FA03F328
:1025D0000B4269D1FEF7CAFD401B0228E6D9032051
:1025E000CFE11B48036823F0F8036169F82292FAEF
:1025F000A2F2B2FA82F201FA02F213430360C1E7D7
:10260000012393FAA3F3B3FA83F303F1845303F59D
:1026100084139B0000221A60FEF7A8FD05460223E2
:1026200093FAA3F30A4B1968022393FAA3F3B3FABC
:1026300083F303F01F03012202FA03F30B42A1D03C
:10264000FEF794FD401B0228E9D9032099E100BF61
:102650000010024020819010012292FAA2F2B2FAF8
:1026600082F2B74B13449B0000221A60FEF77EFDF6
:102670000546022393FAA3F293FAA3F293FAA3F284
:10268000B04A516A93FAA3F3B3FA83F303F01F033A
:10269000012202FA03F30B4206D0FEF767FD401B4E
:1026A0000228E6D903206CE1236813F0040F00F040
:1026B000A980A44BDB6913F0805F20D1A14BDA69BC
:1026C00042F08052DA61DB6903F080530193019B91
:1026D00001259D4B1B6813F4807F12D0E368012B0A
:1026E00023D073BB03F1804303F504331A6A22F04D
:1026F00001021A621A6A22F004021A621AE0002524
:10270000E7E7914A136843F480731360FEF72EFDE8
:1027100006468D4B1B6813F4807FDFD1FEF726FD44
:10272000801B6428F5D903202BE1864A136A43F005
:1027300001031362E368002B3CD0FEF717FD064649
:102740002BE0052B09D07F4B1A6A22F001021A6296
:102750001A6A22F004021A62ECE77A4B1A6A42F013
:1027600004021A621A6A42F001021A62E2E7754B29
:10277000196A022393FAA3F3B3FA83F303F01F0356
:10278000012202FA03F319423BD1FEF7EFFC801B52
:1027900041F28833984200F2EF80022393FAA3F2C9
:1027A00093FAA3F3002BE2D1022393FAA3F3654B30
:1027B000596ADEE7FEF7DAFC064615E0614B196A56
:1027C000022393FAA3F3B3FA83F303F01F03012266
:1027D00002FA03F3194214D0FEF7C8FC801B41F241
:1027E0008833984200F2CA80022393FAA3F293FA44
:1027F000A3F3002BE2D1022393FAA3F3514B596ABE
:10280000DEE7B5BBE369002B00F0BA804D4A5268A1
:1028100002F00C02082A00F09980022B2FD04FF012
:10282000807393FAA3F3B3FA83F303F1845303F5AC
:1028300084139B0000221A60FEF798FC04464FF0B8
:10284000007393FAA3F33F4B19684FF0007393FAA8
:10285000A3F3B3FA83F303F01F03012202FA03F395
:1028600019426BD0FEF782FC001B0228E7D9032037
:1028700087E0344AD36923F08053D361C2E74FF035
:10288000807393FAA3F3B3FA83F303F1845303F54C
:1028900084139B0000221A60FEF768FC05464FF087
:1028A000007393FAA3F3274B19684FF0007393FA60
:1028B000A3F3B3FA83F303F01F03012202FA03F335
:1028C000194206D0FEF752FC401B0228E7D903202C
:1028D00057E01C494B6823F47413626A206A024370
:1028E00013434B604FF0807393FAA3F3B3FA83F36F
:1028F00003F1845303F584139B0001221A60FEF751
:1029000035FC04464FF0007393FAA3F30D4B19689E
:102910004FF0007393FAA3F3B3FA83F303F01F03AA
:10292000012202FA03F3194206D1FEF71FFC001B35
:102930000228E7D9032024E0002022E0002020E044
:10294000208190100010024000700040012B1AD02E
:10295000104B5B6803F48031226A914215D103F475
:102960007013626A934212D100200AE0012070477E
:10297000012006E0012004E0032002E0032000E043
:10298000002002B070BD0120FBE70120F9E7012023
:10299000F7E700BF00100240164B5B6803F00C0223
:1029A000082A01D01448704703F470114FF47012D4
:1029B00092FAA2F2B2FA82F221FA02F20F49885C8C
:1029C0000C4AD26A02F00F020F2191FAA1F1B1FA7A
:1029D00081F1CA400A498A5C13F4803F05D0064B56
:1029E000B3FBF2F303FB00F07047064B03FB00F070
:1029F000704700BF0010024000127A00FC4300083C
:102A00000C44000800093D00002800F0BE8070B5AD
:102A10000D460446614B1B6803F007038B420BD243
:102A20005E4A136823F007030B431360136803F037
:102A300007038B4240F0AB80236813F0020F06D0EF
:102A4000574A536823F0F003A1680B43536023688F
:102A500013F0010F5AD06368012B2DD0022B40D008
:102A6000022292FAA2F24E4A1068022292FAA2F2CE
:102A7000B2FA82F202F01F02012101FA02F21042C0
:102A800000F0878046494A6822F0030213434B60F6
:102A9000FEF76CFB0646424B5B6803F00C03626872
:102AA000B3EB820F32D0FEF761FB801B41F288331B
:102AB0009842F0D9032067E04FF4003292FAA2F274
:102AC000374A10684FF4003292FAA2F2B2FA82F258
:102AD00002F01F02012101FA02F20242D2D10120CA
:102AE00052E04FF0007292FAA2F22D4A10684FF0B5
:102AF000007292FAA2F2B2FA82F202F01F020121EF
:102B000001FA02F21042BDD101203DE0234B1B68C7
:102B100003F00703AB420AD9204A136823F00703E6
:102B20002B431360136803F00703AB4233D12368D0
:102B300013F0040F06D01A4A536823F4E063E168E7
:102B40000B435360236813F0080F07D0144A5368EF
:102B500023F46053216943EAC1035360FFF71CFF6C
:102B60000F4B5B6803F0F003F02292FAA2F2B2FA84
:102B700082F2D3400B4AD35CD8400B4B18600B4B0E
:102B80001868FEF7AFFA002070BD012070470120E1
:102B9000FAE70120F8E70120F6E700BF0020024035
:102BA00000100240E443000800000020080000205C
:102BB000014B1868704700BF0000002008B5FFF700
:102BC000F7FF074B5B6803F4E0634FF4E06292FAAF
:102BD000A2F2B2FA82F2D340024AD35CD84008BDD6
:102BE00000100240F443000808B5FFF7E1FF074B6F
:102BF0005B6803F460534FF4605292FAA2F2B2FAA7
:102C000082F2D340024AD35CD84008BD0010024093
:102C1000F4430008F0B583B00446036813F4803F22
:102C200048D0914BDB6913F0805F40F0D4808E4B2D
:102C3000DA6942F08052DA61DB6903F08053019374
:102C4000019B0125894B1B6813F4807F00F0C58030
:102C5000854B1B6A13F4407322D0626802F4407201
:102C60009A421DD08048016A21F440764FF48033A7
:102C700093FAA3F2B2FA82F27D4F3A4492004FF0F7
:102C8000010CC2F800C093FAA3F3B3FA83F33B44F8
:102C90009B0000221A60066211F0010F40F0B28022
:102CA000714A136A23F4407361680B431362002D69
:102CB00040F0CF80236813F0010F06D06A4A136BEF
:102CC00023F00303A1680B431363236813F0020F7F
:102CD00006D0654A136B23F44033E1680B4313635A
:102CE000236813F0040F06D05F4A136B23F44023CC
:102CF00021690B431363236813F0200F06D05A4A4F
:102D0000136B23F01003E1690B431363236813F47F
:102D1000003F06D0544A536823F48003A16B0B4351
:102D20005360236813F0400F06D04F4A136B23F013
:102D30002003216A0B431363236813F0080F06D0A6
:102D4000494A136B23F4401361690B4313632368EF
:102D500013F0100F06D0444A136B23F44003A1690B
:102D60000B431363236813F4007F06D03E4A536875
:102D700023F40003E16A0B435360236813F0800FD0
:102D800006D0394AD36A23F4F873616A0B43D362DD
:102D9000236813F4807F06D0334AD36A23F4785330
:102DA000A16A0B43D362236813F4805F06D02E4AD6
:102DB000136B23F48073216B0B431363236813F4A9
:102DC000005F4DD0284A136B23F40073616B0B43F3
:102DD0001363002045E0002534E7244A136843F4D8
:102DE00080731360FEF7C2F90646204B1B6813F48C
:102DF000807F7FF42DAFFEF7B9F9801B6428F4D9EA
:102E000003202EE0FEF7B2F9064615E0164B196ACC
:102E1000022393FAA3F3B3FA83F303F01F0301220F
:102E200002FA03F30B427FF43BAFFEF79FF9801BDE
:102E300041F28833984211D8022393FAA3F293FA0D
:102E4000A3F3002BE2D1022393FAA3F3064B596AB2
:102E5000DEE7D36923F08053D3612BE7032000E042
:102E6000002003B0F0BD00BF001002400070004021
:102E70000081901090F83D30DBB2012B2DD1022360
:102E800080F83D300368184A934218D0B3F1804F60
:102E900015D0A2F59432934211D002F5806293428C
:102EA0000DD002F59632934209D002F5406293426A
:102EB00005D01A6842F001021A6000207047996834
:102EC0000A4A0A40062A0AD0B2F5803F09D01A6899
:102ED00042F001021A600020704701207047002074
:102EE00070470020704700BF002C01400700010020
:102EF00003682C4A90420ED0B0F1804F0BD0A2F55F
:102F00009432904207D002F58062904203D002F5DD
:102F10009632904203D123F070034A681343214A4A
:102F200090421AD0B0F1804F17D0A2F5943290425F
:102F300013D002F5806290420FD002F59632904293
:102F40000BD002F54062904207D002F580629042B9
:102F500003D002F58062904203D123F44073CA6823
:102F6000134323F080034A69134303608B68C362F1
:102F70000B6883620B4B98420FD003F500639842B5
:102F80000BD003F54063984207D003F58063984265
:102F900003D003F58063984201D10B6903630123D9
:102FA00043617047002C014060B310B5044690F8AF
:102FB0003D3013B3022384F83D30214651F8040B11
:102FC000FFF796FF012384F8483084F83E3084F8F8
:102FD0003F3084F8403084F8413084F8423084F83F
:102FE000433084F8443084F8453084F8463084F81F
:102FF000473084F83D30002010BD80F83C30FDF7AC
:10300000CBFFD7E701207047026852E8003F23F06A
:10301000C00342E800310029F6D1202383677047BE
:10302000026852E8003F23F4907342E8003100291F
:10303000F6D1026802F1080353E8003F23F00103D0
:10304000083242E800310029F3D1036E012B05D08C
:103050002023C3670023036643667047026852E873
:10306000003F23F0100342E800310029F6D1EFE7DA
:10307000836F202B4AD110B50446002948D0002A7E
:1030800048D090F87430012B46D0012380F874307A
:10309000C164A0F85020A0F852200023C0F880306E
:1030A00021238367C36EEBB11C499962C36E1C492F
:1030B000D962C36E1B491963C36E0021596301684D
:1030C000134601F12802C16CC06EFEF785FF48B1BE
:1030D0001023C4F88030002384F874302023A367C1
:1030E000012012E0236840221A62002384F8743021
:1030F000226802F1080353E8003F43F080030832DE
:1031000042E800310029F3D1002010BD02207047B1
:103110000120FAE70120F8E70220F6E7293100084C
:10312000913100089D31000808B50346406A9B694B
:10313000202B18D00023A0F85230026802F10803B7
:1031400053E8003F23F08003083242E800310029B1
:10315000F3D1026852E8003F43F0400342E80031F7
:103160000029F6D108BDFDF7CDFDFBE708B50268E3
:1031700052E8003F23F0400342E800310029F6D135
:103180002023836700238366FDF7BCFD08BD7047DD
:1031900008B5406AFFF7FBFF08BD704738B5446AC1
:1031A000A26FE56F23689B6813F0800F01D0212A7E
:1031B00010D023689B6813F0400F01D0222D10D04F
:1031C000D4F8803043F01003C4F880302046FFF775
:1031D000E4FF38BD0023A4F852302046FFF714FF67
:1031E000E7E70023A4F85A302046FFF719FFE7E786
:1031F00008B5406A0023A0F85A30A0F85230FFF713
:10320000CCFF08BD7047000070B504460168CB696B
:1032100008688D6840F60F021A4005D113F0200FA0
:1032200002D010F0200F20D12AB115F0010222D1D6
:10323000AB4E30421FD1226E012A00F0AB8013F456
:10324000801F03D015F4800F40F0378113F0800FFA
:1032500003D010F0800F40F0378113F0400F03D0FF
:1032600010F0400F40F0378170BD636E002BFBD033
:1032700020469847F8E713F0010F09D010F4807F3B
:1032800006D001250D62D4F880102943C4F88010BF
:1032900013F0020F09D042B1216802250D62D4F863
:1032A000801041F00401C4F8801013F0040F09D01D
:1032B00042B1216804250D62D4F8801041F002016A
:1032C000C4F8801013F0080F0BD010F0200F00D1BD
:1032D0003AB1226808211162D4F880200A43C4F868
:1032E000802013F4006F0CD010F0806F09D022689A
:1032F0004FF400611162D4F8802042F02002C4F83B
:103300008020D4F88020002AAED013F0200F06D001
:1033100010F0200F03D0636E0BB120469847D4F80D
:10332000802023689B6813F0400F02D112F0280F11
:1033300029D02046FFF774FE23689B6813F0400FE6
:103340001DD0226802F1080353E8003F23F0400338
:10335000083242E800310029F3D1236F5BB1614AA2
:103360005A63206FFEF794FE00283FF47DAF206F74
:10337000436B984778E72046FFF70FFF74E7204636
:10338000FFF70BFF70E72046FFF707FF0023C4F8A5
:10339000803069E713F0100F3FF451AF10F0100FB9
:1033A0003FF44DAF10230B6223689B6813F0400F6E
:1033B0004CD0226F13685B689BB2002B3FF454AF74
:1033C000B4F8581099427FF64FAFA4F85A30936979
:1033D000202B30D0226852E8003F23F4807342E86B
:1033E00000310029F6D1226802F1080353E8003FBA
:1033F00023F00103083242E800310029F3D12268AA
:1034000002F1080353E8003F23F04003083242E88A
:1034100000310029F3D12023E367002323662268CB
:1034200052E8003F23F0100342E800310029F6D1B2
:10343000206FFEF70BFEB4F85810B4F85A309BB268
:10344000C91A89B22046FFF7DDFE0DE7B4F858101F
:10345000B4F85A309BB2C91A89B2B4F85A309BB248
:10346000002B3FF401AF00293FF4FEAE226852E882
:10347000003F23F4907342E800300028F6D1226820
:1034800002F1080353E8003F23F00103083242E849
:1034900000300028F3D12023E3670023236663660E
:1034A000226852E8003F23F0100342E80030002871
:1034B000F6D12046FFF7A6FED6E64FF480130B6246
:1034C000204600F071FACFE6A36E002B3FF4CCAE9D
:1034D00020469847C8E62046FFF748FEC4E600BFEE
:1034E00020010004F131000810B504468368026928
:1034F000134342691343C2691A4301680B6823F4FA
:10350000164323F00C0313430B600268536823F443
:103510004053C1680B4353608269036A1A430168D0
:103520008B6823F4306313438B6003687B4A9342B8
:103530000DD07B4A93421CD07A4A93423AD07A4AC1
:1035400093424AD0794A93425AD010231FE0784BD5
:103550001B6B03F00303032B09D8DFE803F002041D
:103560000664012313E0042311E008230FE0102375
:103570000DE06F4B1B6B03F44033B3F5003F54D0A9
:1035800013D8002B53D0B3F5803F52D10423E06908
:10359000B0F5004F69D0082B00F2B980DFE803F0E6
:1035A00092A890B7ABB7B7B7AE00B3F5403F42D1E2
:1035B0000223ECE75E4B1B6B03F44023B3F5002FB3
:1035C0003BD005D8DBB3B3F5802F3AD10423DEE737
:1035D000B3F5402F37D10223D9E7554B1B6B03F4CA
:1035E0004013B3F5001F30D005D883B3B3F5801F67
:1035F0002FD10423CBE7B3F5401F2CD10223C6E71C
:103600004B4B1B6B03F44003B3F5000F25D005D8DB
:103610002BB3B3F5800F24D10423B8E7B3F5400FE3
:1036200021D10223B3E70223B1E70823AFE7002348
:10363000ADE71023ABE71023A9E70823A7E7002392
:10364000A5E71023A3E71023A1E708239FE70023A2
:103650009DE710239BE7102399E7082397E70023B2
:1036600095E7102393E7102391E7082B49D8DFE86B
:1036700003F0051F2548224848480900FFF79EFA35
:10368000002840D06268530803EB4000B0FBF2F022
:1036900080B2A0F110024FF6EF739A4235D820F0B5
:1036A0000F03C0F3420018432368D86000201BE0DA
:1036B000FFF79AFAE4E7FFF76FF9E1E71D48E1E762
:1036C0001C4802E0FFF77AFA18B3636800EB530076
:1036D000B0FBF3F080B2A0F110024FF6EF739A4204
:1036E00019D82368D860002000236366A36610BD44
:1036F000FFF77AFAE8E7FFF74FF9E5E74FF4004004
:10370000E3E70120F0E70020EEE70120ECE70120ED
:10371000EAE70020E8E70120E6E700BF00380140C3
:103720000044004000480040004C00400050004071
:103730000010024000127A00436A13F0010F06D015
:103740000268536823F40033816A0B435360436A71
:1037500013F0020F06D00268536823F48033C16A65
:103760000B435360436A13F0040F06D0026853689A
:1037700023F48023016B0B435360436A13F0080F5B
:1037800006D00268536823F40043416B0B43536037
:10379000436A13F0100F06D00268936823F4805335
:1037A000816B0B439360436A13F0200F06D00268CD
:1037B000936823F40053C16B0B439360436A13F087
:1037C000400F0AD00268536823F48013016C0B4346
:1037D0005360036CB3F5801F0BD0436A13F0800F66
:1037E00006D00268536823F40023816C0B435360B6
:1037F00070470268536823F4C003416C0B43536065
:10380000EBE72DE9F84305460F4616469946DDF8E5
:1038100020802C68E46937EA04030CBF4FF0010CE8
:103820004FF0000CB44553D1B8F1FF3FF1D0FDF794
:103830009DFCA0EB090040452DD8B8F1000F2AD01F
:103840002B681A6812F0040FE3D0DA6912F4006FE3
:10385000DFD04FF400621A622A6852E8003F23F476
:10386000D07342E800310029F6D12A6802F108033A
:1038700053E8003F23F00103083242E800310029F9
:10388000F3D12023AB67EB67C5F88030002385F8C0
:10389000743003201DE02A6852E8003F23F4D073FF
:1038A00042E800310029F6D12A6802F1080353E802
:1038B000003F23F00103083242E800310029F3D130
:1038C0002023AB67EB67002385F87430032000E00A
:1038D0000020BDE8F88330B583B004460023C0F86B
:1038E0008030FDF743FC05462268126812F0080F8D
:1038F0000DD123681B6813F0040F16D12023A36792
:10390000E3670020206684F8740003B030BD6FF0D8
:103910007E430093034600224FF400112046FFF738
:1039200070FF0028E5D00320EFE76FF07E4300939F
:103930002B4600224FF480012046FFF762FF00284B
:10394000DCD00320E1E768B310B50446836F03B30E
:103950002423A3672268136823F001031360204621
:10396000FFF7C2FD012813D0636ABBB92268536810
:1039700023F4904353602268936823F02A039360F2
:103980002268136843F0010313602046FFF7A3FF8A
:1039900010BD80F87430FDF731FBD9E72046FFF702
:1039A000CBFEE3E70120704770470000DFF834D01A
:1039B0000D480E490E4A002302E0D458C450043387
:1039C000C4188C42F9D30B4A0B4C002301E013605E
:1039D0000432A242FBD3FDF7B9FA00F011F8FDF76B
:1039E000E5F9FEE700A000200000002070000020A4
:1039F000584400087000002054030020FEE7000037
:103A000070B50D4D0D4C641BA4100026A64209D1C3
:103A10000B4D0C4C00F09CFC641BA4100026A6422D
:103A200005D170BD55F8043B98470136EEE755F8CF
:103A3000043B98470136F2E7504400085044000820
:103A400050440008544400080A44914200F1FF33F6
:103A500000D1704710B511F8014B03F8014F9142A6
:103A6000F9D110BD02440346934200D1704703F8D8
:103A7000011BF9E70EB400B59CB01DAB0290069097
:103A80006FF00041094807910491094953F8042B4C
:103A900005910068019302A900F068F8029B0022DA
:103AA0001A701CB05DF804EB03B070470C000020E6
:103AB0000802FFFF2DE9F0478E689E4282460C46C1
:103AC00090461F4638D88A8912F4906F32D0256804
:103AD0000969A5EB0109656905EB450505EBD57598
:103AE00001334B446D109D4238BF1D46530531D5FF
:103AF000294600F055FB064650B90C23CAF80030A1
:103B0000A38943F04003A3814FF0FF30BDE8F08765
:103B100021694A46FFF798FFA38923F4906343F095
:103B20008003A381266165614E44A5EB09052660EB
:103B3000A5603E46BE4200D93E4620683246414618
:103B400000F0A8FAA3689B1BA3602368334423609A
:103B50000020DBE72A4600F097FB06460028E1D16B
:103B60002169504600F0B0FAC7E700002DE9F04F98
:103B700098468B891B069DB007460D4614460ED508
:103B80000B6963B9402100F00BFB2860286120B964
:103B90000C233B604FF0FF30D1E040236B610023EA
:103BA000099320238DF82930CDF80C803023DFF8DD
:103BB000A8818DF82A304FF0010923469A4613F860
:103BC000012B0AB1252AF9D1BAEB040B0BD05B46C5
:103BD000224629463846FFF76DFF013000F0AA80E3
:103BE000099A5A4409929AF80030002B00F0A280FA
:103BF00000234FF0FF32CDE905230AF1010A0493B7
:103C000007938DF853301A935446052214F8011B7C
:103C10005148FCF7DDFA049AD8B9D00644BF2023F6
:103C20008DF85330110744BF2B238DF853309AF889
:103C300000302A2B15D0079A544600204FF00A0C6A
:103C4000214611F8013B303B092B4ED9B0B1079208
:103C500014E0A0EB080309FA03F313430493A2460C
:103C6000D2E7039B191D1B680391002BBBBF5B426E
:103C700042F0020207930793B8BF049223782E2BD9
:103C80000CD163782A2B35D1039B1A1D1B68039234
:103C9000002BB8BF4FF0FF3302340593DFF8C8A004
:103CA000217803225046FCF793FA40B14023A0EB61
:103CB0000A0003FA00F0049B03430134049314F850
:103CC000011B26488DF828100622FCF781FA0028EF
:103CD00038D0234B1BBB039B073323F00703083368
:103CE0000393099B3344099367E70CFB02320C46AC
:103CF0000120A5E700230134059319464FF00A0C73
:103D0000204610F8012B303A092A03D9002BC5D0E0
:103D10000591C3E70CFB012104460123F0E703AB47
:103D200000932A460F4B04A93846AFF30080421C8B
:103D30000646D6D1AB895B063FF52CAF09981DB07E
:103D4000BDE8F08F03AB00932A46064B04A9384622
:103D500000F07AF8EBE700BF1C4400082644000896
:103D600000000000B53A0008224400082DE9F047A1
:103D7000164699468A680B69DDF820809342B8BFE1
:103D80001346336091F8432007460C460AB10133CD
:103D900033602368990642BF336802333360256875
:103DA00015F0060506D104F1190AE36832689B1A7A
:103DB000AB4226DC94F84320131E226818BF01236F
:103DC00092062BD404F1430249463846C0470130DD
:103DD0001ED02368E568326803F00603042B08BF91
:103DE000AD1AA36822690CBF25EAE5750025934248
:103DF000C4BF9B1AED1800261A34B5421AD1002010
:103E000008E00123524649463846C047013003D1F5
:103E10004FF0FF30BDE8F0870135C6E7E1185A1CC6
:103E2000302081F84300224494F8451082F8431072
:103E30000233C7E70123224649463846C0470130CE
:103E4000E6D00136D9E700002DE9FF470F7E0C9D33
:103E5000782F914680460C469A4601F1430207D8D6
:103E6000622F0AD8002F00F0D880582F00F0A380CE
:103E700004F1420584F842703AE0A7F16303152B80
:103E8000F6D801A151F823F0E13E0008F53E000804
:103E9000713E0008713E0008713E0008713E000846
:103EA000F53E0008713E0008713E0008713E0008B2
:103EB000713E000801400008253F0008E33F00086C
:103EC000713E0008713E000823400008713E000862
:103ED000253F0008713E0008713E0008EB3F0008D6
:103EE0002B681A1D1B682A6004F1420584F84230D1
:103EF0000123A3E020682968060601F104030AD51E
:103F00000E682B60002E03DA2D23764284F84330AE
:103F10005E480A2319E00E682B6010F0400F18BFAE
:103F200036B2EFE72B682068191D2960010601D51C
:103F30001E6802E04606FBD51E8854486F2F0CBF52
:103F400008230A23002184F843106568A560002D2A
:103F5000A2BF216821F0040121600EB9002D4DD0CF
:103F60001546B6FBF3F103FB1167C75D05F8017D4C
:103F70003746BB420E46F4D9082B0BD12368DE0727
:103F800008D5236961689942DEBF302305F8013CFA
:103F900005F1FF35521B2261CDF800A04B4603AA64
:103FA00021464046FFF7E2FE01304CD14FF0FF3092
:103FB00004B0BDE8F087354881F84570296823686A
:103FC00051F8046B29601D0614D5DF0744BF43F088
:103FD000200323601EB9236823F0200323601023ED
:103FE000B0E7236843F0200323607823284884F84F
:103FF0004530E3E7590648BFB6B2E6E71546BBE7EA
:104000002B6826686169181D286035061B6801D574
:10401000196002E07006FBD5198000232361154664
:10402000BAE72B681A1D2A601D68626800212846BD
:10403000FCF7CEF808B1401B606063682361002381
:1040400084F84330A8E723692A4649464046D047CA
:104050000130ABD023689B0713D4E068039B9842E0
:10406000B8BF1846A4E70123324649464046D04728
:1040700001309BD00135E36803995B1AAB42F2DC57
:10408000EBE7002504F11906F5E700BF2D44000811
:104090003E440008884210B501EB020402D9844274
:1040A000234607D8431EA14208D011F8012B03F87C
:1040B000012FF8E7024401468A4200D110BD13F8EF
:1040C000014D02F8014DF7E737B5002944D051F80A
:1040D000043C0190002BA1F10404B8BFE41800F0E7
:1040E00013F91E4A0198136833B96360146003B072
:1040F000BDE8304000F00EB9A34208D92568611927
:104100008B4201BF19685B6849192160EDE71A46C7
:104110005B680BB1A342FAD911685518A5420BD1BF
:10412000246821445418A3421160E0D11C685B68E4
:10413000536021441160DAE702D90C230360D6E70B
:10414000256861198B4204BF19685B68636004BF0E
:10415000491921605460CAE703B030BD4003002014
:1041600070B50E4E0C463168054611B900F0BCF82A
:1041700030602146284600F0B7F8431C0AD0C41C22
:1041800024F00304A04207D0211A284600F0ACF81E
:10419000013001D14FF0FF34204670BD44030020B0
:1041A0002DE9F041CD1C25F0030508350C2D38BF55
:1041B0000C25002D074601DBA94205D90C233B60E5
:1041C00000263046BDE8F0812E4E00F09DF83368A1
:1041D0001C4634BB29463846FFF7C2FF431C044641
:1041E0004DD134682646002E40D1236831463846EA
:1041F00004EB030800F078F880453AD121680335D4
:104200006D1A25F0030508350C2D38BF0C252946FD
:104210003846FFF7A5FF01302BD023682B442360DD
:104220000EE02268521B1ED40B2A16D96119A34234
:10423000256018BF5960636808BF316062514B60E8
:10424000384604F10B0600F065F826F00706231D3A
:10425000F21AB6D09B1BA350B3E76268A3420CBF0F
:1042600032605A60ECE723466468B2E73446766809
:10427000B9E70C233B60384600F04CF8A1E7256015
:10428000DEE700BF400300202DE9F04180461446E0
:104290000E4621B9BDE8F0411146FFF781BF2AB9AA
:1042A000FFF712FF25462846BDE8F08100F038F8F8
:1042B0008442074602D8B4EB500F12D8214640463C
:1042C000FFF76EFF05460028EDD0BC42224631467E
:1042D00028BF3A46FFF7B8FB31464046FFF7F4FEE9
:1042E000E1E73546DFE7000038B5064D0023044618
:1042F00008462B6000F01EF8431C02D12B6803B166
:10430000236038BD48030020014800F011B800BF09
:104310004C030020014800F00CB800BF4C03002003
:1043200051F8043C181F002BBCBF0B58C018704735
:1043300070477047044A05491368002B08BF0B46B5
:10434000184410601846704750030020580300209E
:10435000F8B500BFF8BC08BC9E467047F8B500BF72
:08436000F8BC08BC9E46704742
:104368005B414443315D203D2025646D762C205B04
:10437800414443325D203D2025646D762C205B410D
:104388004443335D203D2025646D762C205B4144F9
:1043980043345D203D2025646D762C205B414443E9
:1043A800355D203D2025646D762C205B41444336E5
:1043B8005D203D2025646D762C205B414443375DAC
:1043C800203D2025646D762C205B424154564F4C8D
:1043D8005D203D2025646D760D0A00000000000078
:1043E800000000000102030406070809000000009D
:1043F8000102030402030405060708090A0B0C0D51
:104408000E0F10100102030405060708090A0B0C19
:104418000D0E0F10232D302B2000686C4C006566A4
:1044280067454647003031323334353637383941FD
:104438004243444546003031323334353637383913
:08444800616263646566000017
:04445000B5010008AA
:0444540091010008CA
:1044580000127A0001000000100000001000002087
:104468000000000000000000000000000000000044
:104478000000000000000000000000000000000034
:104488000000000000000000000000000000000024
:104498000000000000000000000000000000000014
:1044A8000000000000000000000000000000000004
:1044B80000000000000000000000000000000000F4
:04000005080039AD09
:00000001FF
